:100000000C942B090C9447090C9447090C9447094C
:100010000C9447090C9447090C9447090C94470920
:100020000C9447090C9447090C94B8110C942412B1
:100030000C9447090C9447090C9447090C94470900
:100040000C9447090C9447090C9447090C944709F0
:100050000C9447090C9447090C9447090C944709E0
:100060000C9447090C9447090C9447090C944709D0
:100070000C9447090C9447090C9447090C944709C0
:100080000C9447090C9447090C9447090C944709B0
:100090000C9447090C9447090C9447090C944709A0
:1000A0000C9447090C9447090C944709000302E19A
:1000B00039E2E3E7E6062C2819002D331E29060055
:1000C000000000E400381D1F3604140D0E1B334CD5
:1000D00005101A191638352D1208180C0000070BD8
:1000E00017110F2E312B3701131C342A090A06155C
:1000F000343124212F2F30262C292E252730363736
:10010000000000000000000000002C28000000009B
:1001100000000000000000000000000000000000DF
:100120000000000020242526370000000000000009
:100130000000271E1F202200000000000000000019
:100140003521222300000000000000000000000014
:10015000230000000000000000000000004A2C0006
:100160004D00000000000000000000000000000042
:10017000000000000000000000000037330800000D
:10018000E12A4C0000000450514F000000001F2ADB
:10019000070E0000000552090000000000000000EA
:1001A00000000000000000000003007F00000000CD
:1001B0000000000000004648002965000000000023
:1001C000000000003D1D1B06193E810000000000DC
:1001D00000003C4950514F4E00000000000000005C
:1001E0003B444A524D4B80000000000000003A3F63
:1001F0004041424345000000000000000044000070
:10020000444444454545000045000000000000000E
:100210000000000000000000003A3B3C3D3E0000B2
:100220003F4041424300003A3B3C3D3E00003F40DE
:1002300041424300003A3B3C3D3E00003F404142CA
:100240004300003A3B3C3D3E00003F4041424300FA
:10025000000000000000000000000000000000009E
:10026000000000000000000000000000001D1B0650
:100270001905000011103637380000041607090A66
:1002800000000B0D0E0F330000141A0815170000A4
:100290001C180C121300001E1F2021220000232412
:1002A00025262700000000000000000000000000DC
:1002B000000000000000000000000000000000003E
:1002C0000000000000000000005F60616358000053
:1002D00000000000000062595A5B5400000000005A
:1002E00000000000005C5D5E0000000000000000F7
:1002F00000005357565500000000000000000000A9
:1003000000000000000000000000000000000000ED
:1003100000000000000000000000000000000000DD
:1003200000000000000000000000000000000000CD
:1003300000000000000000000000000000000000BD
:1003400000000000000000000000000000000000AD
:10035000000000000000000000000000000000009D
:10036000000000000000000000000000000000008D
:10037000000000000000000000000000000000007D
:10038000000000000000000000000000000000006D
:10039000000000000000000000000000000000005D
:1003A000000000000000000000000000000000004D
:1003B000000000000000000000000000000000003D
:1003C000000000000000000000000000000000002D
:1003D000000000000000000000000000000000001D
:1003E000000000000000000000000000000000000D
:1003F00000000000000054108B10D210D210D21058
:10040000D210D210D2102E11D210D2102E11000004
:10041000D210D2103811D210891000000000000054
:100420000000D21000003811D2103811D210D210B2
:10043000D210D210D210D2103811D210D210D21045
:10044000D210D210D210D21038113811D210D210CE
:10045000D210D21000000000D210D210D210D21050
:10046000D21038113811D210D2105610D210D2102A
:10047000D210D210D210D210D210D2103811D21005
:1004800038113811D2103811381138112E11D210FC
:10049000D21038113811D210381138110000000074
:1004A0000000000000008D108D108D108D100000D8
:1004B000D210D210000000000000000000008D10DB
:1004C0008D1000000000000000008D108D10000055
:1004D000000000000000000000000000000000001C
:1004E00000008D103811D210D210D210D21000009E
:1004F00000000000000000000000000000000000FC
:10050000D210D210D210D21038110000000000001A
:100510000000CF0E0000000000008D10D210D2109D
:10052000D210D21000000000000000000000000007
:100530000000000000000000000000003811000072
:1005400000000000000000000000000000000000AB
:10055000000000000000D21029110000D21000009D
:10056000000000000000000000000000000000008B
:10057000000000000000000000000000000000007B
:10058000000000000000000000000000000000006B
:10059000000029112911331100000000D210D210DF
:1005A000D2100000000000003311D210D210D2107F
:1005B0000000000000000000291129112911331149
:1005C0000000000000002911D210291100000000D5
:1005D000EC1000000000000000000000000000001F
:1005E00000000000000000000000000000005410A7
:1005F0000000D21000000000000000000000000019
:100600000000000000000000D210D2100000D21044
:10061000D2100000000000000000000000000000F8
:1006200000000000D2102E112E112E112E11D2100A
:10063000D2100000000000000000000000000000D8
:10064000D210D210D210D210D210D210000000005E
:10065000000000000000000000000000D210D210D6
:10066000D210D210D210D210D21000000000000020
:100670000000000000000000D210D210D210D210F2
:10068000D210D210D21000000000000000000000C4
:100690000000000000002E11000000002911D210FF
:1006A00033113311D2102911000000002E11000067
:1006B00000008D10000000008D1000000000000000
:1006C00000008D1000000000000000008D102E11B1
:1006D0002E112E112E112E11000000002E112E11A0
:1006E0002E112E112E118D100000D210D210D2100A
:1006F000D210D21000000000D210D210D210D210AE
:10070000D2100000000029112911291129112911E5
:100710008D108D102911291129112911291100007D
:100720000000331133113311331133110000000075
:100730003311331133113311331100000000000065
:1007400000000000000000000000000000000000A9
:100750000000000000000000000000000000000099
:100760000000000000000000000000000000000089
:100770000000000000001C111C111C111C111C1198
:10078000000000001C111C111C111C111C11000088
:1007900000001C111C111C111C111C110000000078
:1007A0001C111C111C111C111C11000000001C113B
:1007B0001C111C111C111C11000000001C111C112B
:1007C0001C111C111C11000000001C111C111C111B
:1007D0001C111C11000000001C111C111C111C110B
:1007E0001C110000000000000000000000000000DC
:1007F00000000000000000000000000000000000F9
:1008000000000000000000000000000000000000E8
:1008100000000000000000000000000000000000D8
:100820000000000000000000000000000000D210E6
:10083000D210D210D210D210000000000000000030
:100840000000000000000000D210D210D210D21020
:10085000D2100000000000000000000000000000B6
:10086000000000000000D210D210D21000000000E2
:100870000000000000000000000000000000000078
:10088000D210D210D210D2100000000000000000E0
:100890000000000000000000000000000000000058
:1008A0000000000000000000000000000000000048
:1008B0000000000000000000000000000000000038
:1008C0000000000000000000000000000000000028
:1008D0000000000000000000000000000000000018
:1008E0000000000000000000000000000000000008
:1008F00000000000000000000000000000000000F8
:1009000000000000000000000000000000000000E7
:1009100000000000000000000000000000000000D7
:1009200000000000000000000000000000000000C7
:1009300000000000000000000000000000000000B7
:1009400000000000000000000000000000000000A7
:100950000000000000000000000000000000000097
:100960000000000000000000000000000000000087
:100970000000000000000000000000000000000077
:100980000000000000000000000000000000000067
:100990000000000000000000000000000000000057
:1009A0000000000000000000000000000000000047
:1009B0000000000000000000000000000000000037
:1009C0000000000000000000000000000000000027
:1009D0000000000000000000000000000000000017
:1009E0000000000000000000000000000000000007
:1009F00000000000000000000000000000000000F7
:100A000000000000000000000000000000000000E6
:100A100000000000000000000000000000000000D6
:100A200000000000000000000000000000000000C6
:100A300000000000000000000000000000000000B6
:100A400000000000000000000000000000000000A6
:100A50000000000000000000000000000000000096
:100A60000000000000000000000000000000000086
:100A70000000000000000000000000000000000076
:100A80000000000000005410D90FD210D210D21074
:100A9000D210D210D2102E11D210D2102E1100006E
:100AA000D210D2103811D210C10F00000000000087
:100AB0000000D21000003811D2103811D210D2101C
:100AC000D210D210D210D2103811D210D210D210AF
:100AD000D210D210D210D21038113811D210D21038
:100AE000D210D21000000000D210D210D210D210BA
:100AF000D21038113811D210D2105610D210D21094
:100B0000D210D210D210D210D210D2103811D2106E
:100B100038113811D2103811381138112E11D21065
:100B2000D21038113811D2103811381100000000DD
:100B30000000000000008D108D108D108D10000041
:100B4000D210D210000000000000000000008D1044
:100B50008D1000000000000000008D108D100000BE
:100B60000000000000000000000000000000000085
:100B700000008D103811D210D210D210D210000007
:100B80000000000000000000000000000000000065
:100B9000D210D210D210D210381100000000000084
:100BA000000000000000000000008D10D210D210E4
:100BB000D210D21000000000000000000000000071
:100BC00000000000000000000000000038110000DC
:100BD0000000000000000000000000000000000015
:100BE000000000000000D21029110000D210000007
:100BF00000000000000000000000000000000000F5
:100C000000000000000000000000000000000000E4
:100C100000000000000000000000000000000000D4
:100C2000000029112911331100000000D210D21048
:100C3000D2100000000000003311D210D210D210E8
:100C400000000000000000002911291129113311B2
:100C50000000000000002911D2102911000000003E
:100C60000000000000000000000000000000000084
:100C70000000000000000000000000000000541010
:100C80000000D21000000000000000000000000082
:100C90000000000000000000D210D2100000D210AE
:100CA000D210000000000000000000000000000062
:100CB00000000000D2102E112E112E112E11D21074
:100CC000D210000000000000000000000000000042
:100CD000D210D210D210D210D210D21000000000C8
:100CE000000000000000000000000000D210D21040
:100CF000D210D210D210D210D2100000000000008A
:100D00000000000000000000D210D210D210D2105B
:100D1000D210D210D210000000000000000000002D
:100D20000000000000002E11000000002911D21068
:100D300033113311D2102911000000002E110000D0
:100D400000008D10000000008D1000000000000069
:100D500000008D1000000000000000008D102E111A
:100D60002E112E112E112E11000000002E112E1109
:100D70002E112E112E118D100000D210D210D21073
:100D8000D210D21000000000D210D210D210D21017
:100D9000D21000000000291129112911291129114F
:100DA0008D108D10291129112911291129110000E7
:100DB00000003311331133113311331100000000DF
:100DC00033113311331133113311000000000000CF
:100DD0000000000000000000000000000000000013
:100DE0000000000000000000000000000000000003
:100DF00000000000000000000000000000000000F3
:100E00000000000000001C111C111C111C111C1101
:100E1000000000001C111C111C111C111C110000F1
:100E200000001C111C111C111C111C1100000000E1
:100E30001C111C111C111C111C11000000001C11A4
:100E40001C111C111C111C11000000001C111C1194
:100E50001C111C111C11000000001C111C111C1184
:100E60001C111C11000000001C111C111C111C1174
:100E70001C11000000000000000000000000000045
:100E80000000000000000000000000000000000062
:100E90000000000000000000000000000000000052
:100EA0000000000000000000000000000000000042
:100EB0000000000000000000000000000000D21050
:100EC000D210D210D210D21000000000000000009A
:100ED0000000000000000000D210D210D210D2108A
:100EE000D210000000000000000000000000000020
:100EF000000000000000D210D210D210000000004C
:100F000000000000000000000000000000000000E1
:100F1000D210D210D210D210000000000000000049
:100F200000000000000000000000000000000000C1
:100F300000000000000000000000000000000000B1
:100F400000000000000000000000000000000000A1
:100F50000000000000000000000000000000000091
:100F60000000000000000000000000000000000081
:100F70000000000000000000000000000000000071
:100F80000000000000000000000000000000000061
:100F90000000000000000000000000000000000051
:100FA0000000000000000000000000000000000041
:100FB0000000000000000000000000000000000031
:100FC0000000000000000000000000000000000021
:100FD0000000000000000000000000000000000011
:100FE0000000000000000000000000000000000001
:100FF00000000000000000000000000000000000F1
:1010000000000000000000000000000000000000E0
:1010100000000000000000000000000000000000D0
:1010200000000000000000000000000000000000C0
:1010300000000000000000000000000000000000B0
:1010400000000000000000000000000000000000A0
:101050000000000000000000000000000000000090
:101060000000000000000000000000000000000080
:101070000000000000000000000000000000000070
:101080000000000000000000000000000000000060
:101090000000000000000000000000000000000050
:1010A0000000000000000000000000000000000040
:1010B0000000000000000000000000000000000030
:1010C0000000000000000000000000000000000020
:1010D0000000000000000000000000000000000010
:1010E0000000000000000000000000000000000000
:1010F00000000000000000000000000000000000F0
:1011000000000000000000000000000000000000DF
:1011100000000000000100005A1112000200006CE3
:10112000113B002100007E110900220000A7113FA1
:101130000021010097110900220100E611190003A6
:101140000000FF110401030904031218020309043B
:101150001D123601C10601C1060012010002000085
:101160000020501D286000010102000109023B001F
:10117000020100C03209040000010301010009213D
:1011800011010001223F000705810308000A09043C
:1011900001000103000000092111010001221900D2
:1011A0000705820308000A05010906A101750195DA
:1011B00008050719E029E715002501810295017549
:1011C0000881039505750105081901290591029506
:1011D0000175039103950675081500256805071923
:1011E0000029688100C0050C0901A10185031501D2
:1011F000269C0219012A9C02751095018100C004E9
:10120000030904180375006E007300700065006325
:10121000006900660069006500640000003603454F
:1012200000720067006F0044006F007800200065C6
:1012300000720067006F006E006F006D0069006350
:101240000020006B006500790062006F0061007291
:1012500000640000000011241FBECFEFDAE0DEBF03
:10126000CDBF11E0A0E0B1E0EEEFF7E202C00590E3
:101270000D92AA31B107D9F712E0AAE1B1E001C09D
:101280001D92AD3CB107E1F7E8D00C94FD130C942E
:101290000000282F80911A01821710F480E0089531
:1012A00090E0821B9109FC01EE0FFF1FE80FF91F70
:1012B000E957FD4F80810895282F80911A018217E8
:1012C00010F480E0089590E0821B9109FC01EE0F7C
:1012D000FF1FE80FF91FE957FD4F82810895582F2E
:1012E00021E030E0422FF901EC5FFE4F808188233E
:1012F00099F481E0808380911A018F5F80931A01B5
:1013000090E0FC01EE0FFF1FE80FF91FE957FD4FBA
:1013100050832183628306C02F5F3F4F2431310504
:1013200009F740E0842F0895CF93DF93682F509101
:101330001A0141E0C82FD0E0CC5FDE4F3BC0842FC4
:1013400090E0FC01EE0FFF1FE80FF91FE957FD4F7A
:1013500081818617E1F0852F542F29C0842F90E0DA
:101360009C012F5F3F4FDC01AA0FBB1FA80FB91FC5
:10137000A957BD4FF901EE0FFF1FE20FF31FE95709
:10138000FD4F80818C93818111968C934F5F45171F
:1013900028F3852F90E0FC01EE0FFF1FE80FF91FE7
:1013A000E957FD4F108211821882852F8150452FF9
:1013B0004F5F582F541718F650931A01DF91CF91B1
:1013C00008958091C5029091850220918602309106
:1013D000C8028823A9F08CE1989FF001112488EAC3
:1013E000289FC0011124E80FF91F832F90E0880F78
:1013F000991FE80FF91FEC50FC4F8591949114C090
:101400008CE1989FF001112488EA289FC0011124E3
:10141000E80FF91F832F90E0880F991FE80FF91F3D
:10142000EC57F54F85919491009711F0FC010995C7
:1014300020911A01822F90E0FC01EE0FFF1FE80FB0
:10144000F91FE957FD4F8281823031F480913002DB
:10145000882311F0822F68CF0895CF93DF9348D16E
:101460008CE090E0909389008093880090938B00AB
:1014700080938A0090938D0080938C00259A269A01
:10148000279A14D72AD78823E9F38FE790E090931F
:1014900089008093880082E09DE020E931E0F90135
:1014A0003197F1F70197D9F78FE790E090938B0090
:1014B00080938A0082E09DE020E931E0F9013197D4
:1014C000F1F70197D9F78FE790E090938D00809323
:1014D0008C0082E09DE020E931E0F9013197F1F7DD
:1014E0000197D9F72598269827988FE790E0909351
:1014F00089008093880090938B0080938A0090935A
:101500008D0080938C00C0E2DEE480910201909116
:1015100003012091000130910101309303012093D8
:1015200002019093010180930001D3D010922F0209
:10153000ABC01092C6029EC06A2F70E0E09100011D
:10154000F0910101852F90E0880F991F9C0143E0E5
:10155000220F331F4A95E1F7281B390B260F371F3F
:10156000E20FF31F40814093C502E0910201F09128
:101570000301852F90E0880F991F9C01B3E0220F93
:10158000331FBA95E1F7281B390B260F371FE20FDF
:10159000F31F80818093C302481709F466C0442377
:1015A00009F180911A0190E0FC01EE0FFF1FE80F96
:1015B000F91FE957FD4F208120938602852F90E087
:1015C000880F991FFC01B3E0EE0FFF1FBA95E1F7FA
:1015D000E81BF90BE60FF71FEF5CFD4F208310921D
:1015E000C40226C0852F90E0880F991FFC0133E0CC
:1015F000EE0FFF1F3A95E1F7E81BF90BE60FF71F17
:10160000EF5CFD4F808180938602852F90E0880FEC
:10161000991FFC01B3E0EE0FFF1FBA95E1F7E81B3D
:10162000F90BE60FF71FE55EFE4F80818093C40241
:1016300050938502A093C8021092C702C2DE209187
:10164000C60280912F0290E0880F991FFC0163E091
:10165000EE0FFF1F6A95E1F7E81BF90BE20FF11D92
:10166000E55EFE4F8091C40280838091C6028F5F49
:101670008093C602A091C60250912F02AE3008F4AA
:101680005BCF5F5F50932F0280912F02863008F46A
:1016900050CF26D60E94DC13CE010197F1F780913E
:1016A0002B0280FF02C0259A01C0259880912B0251
:1016B00081FF02C0269A01C0269880912B0282FFEA
:1016C00002C0279A01C0279880912B0280912B029B
:1016D0001CCFCF93DF93EC01BDD0882311F081E0C4
:1016E00004C0CE0139D0811182E0DF91CF910895FD
:1016F000B1D2882311F081E0089503D0811182E0F6
:1017000008951F93D3D380E4F0D3182F882301F5D5
:1017100080E0EBD380E8E9D38FEFE7D3DED3C6D305
:1017200080E4E3D3182F882399F48CE0DED380E89B
:10173000DCD38FEFDAD3D1D3B9D380E4D6D3182F4B
:10174000882331F484E1D1D38FEFCFD38FEFCDD382
:10175000C4D3812F1F9108959F92AF92BF92CF92D1
:10176000DF92EF92FF920F931F93DF93CF930F922D
:10177000CDB7DEB77C01C5DF982E8823A1F0C70165
:1017800040E00EC0FC01E20FF31F10822F5F3F4FBD
:1017900027303105B9F74F5F0E96463009F44CC03B
:1017A00020E030E0EFCF00E010E081E0C82ED12C47
:1017B0005E010894A11CB11C79D380E496D382E128
:1017C00094D3C601002E02C0880F991F0A94E2F735
:1017D00080958BD382D36AD380E487D383E185D38A
:1017E00065D381E482D3C5019ED377D3F701E00F9F
:1017F000F11F25E030E0898190E0022E02C095952E
:1018000087950A94E2F78C259D258170808321506D
:1018100030403E968FEF2F3F380769F70F5F1F4F1D
:101820000730110509F0C8CF41D380E45ED382E1CF
:101830005CD38FEF5AD351D3892D0F90CF91DF9185
:101840001F910F91FF90EF90DF90CF90BF90AF90DE
:101850009F900895EF92FF920F931F93CF93DF9382
:10186000FC01209A85E08A95F1F78FB1178287FDF8
:1018700002C081E087838F01025F1F4F8FB190E02C
:1018800056E0969587955A95E1F721E030E082275A
:1018900093278170D80117968C93BF01645E7F4FA8
:1018A0008FB190E045E0969587954A95E1F78227BC
:1018B00093278170DB0117968C93AF01465D5F4FD4
:1018C0008FB190E0B4E096958795BA95E1F78227BD
:1018D00093278170DA0117968C93EF01E8968FB108
:1018E00090E0969587958227932781708F8386E471
:1018F000E82EF12CEE0EFF1E8FB182278170D701EA
:1019000017968C93209885E0982F9A95F1F7219A55
:101910008A95F1F78FB1108687FD02C081E080873C
:101920008FB190E0B6E096958795BA95E1F721E002
:1019300030E0822793278170D80118968C938FB15D
:1019400090E0A5E096958795AA95E1F782279327E1
:101950008170DB0118968C938FB190E0B4E096957E
:101960008795BA95E1F7822793278170DA01189657
:101970008C938FB190E096958795822793278170FD
:1019800088878FB182278170D70118968C93219810
:1019900085E0982F9A95F1F7229A8A95F1F78FB101
:1019A000118687FD02C081E081878FB190E0B6E0AB
:1019B00096958795BA95E1F721E030E08227932745
:1019C0008170D80119968C938FB190E0A5E096951F
:1019D0008795AA95E1F7822793278170DB011996F5
:1019E0008C938FB190E0B4E096958795BA95E1F726
:1019F000822793278170DA0119968C938FB190E03A
:101A00009695879582279327817089878FB1822742
:101A10008170D70119968C93229885E0982F9A951A
:101A2000F1F7239A8A95F1F78FB1128687FD02C0EC
:101A300081E082878FB190E0B6E096958795BA9560
:101A4000E1F721E030E0822793278170D8011A96D0
:101A50008C938FB190E0A5E096958795AA95E1F7D4
:101A6000822793278170DB011A968C938FB190E0C7
:101A7000B4E096958795BA95E1F782279327817010
:101A8000DA011A968C938FB190E09695879582270C
:101A9000932781708A878FB182278170D7011A9628
:101AA0008C93239885E0982F9A95F1F7529A8A950E
:101AB000F1F78FB1138687FD02C081E083878FB174
:101AC00090E0B6E096958795BA95E1F721E030E091
:101AD000822793278170D8011B968C938FB190E059
:101AE000A5E096958795AA95E1F7822793278170BF
:101AF000DB011B968C938FB190E0B4E096958795AF
:101B0000BA95E1F7822793278170DA011B968C93AF
:101B10008FB190E0969587958227932781708B8768
:101B20008FB182278170D7011B968C93529885E0E4
:101B3000982F9A95F1F7539A8A95F1F78FB11486F9
:101B400087FD02C081E084878FB190E0B6E0969572
:101B50008795BA95E1F721E030E0822793278170DD
:101B6000D8011C968C938FB190E0A5E0969587954F
:101B7000AA95E1F7822793278170DB011C968C934D
:101B80008FB190E0B4E096958795BA95E1F78227FA
:101B900093278170DA011C968C938FB190E0969513
:101BA00087958227932781708C878FB182278170D8
:101BB000D7011C968C93539885E0982F9A95F1F74E
:101BC0003E9A8A95F1F78FB1158687FD02C081E0B4
:101BD00085878FB190E0F6E096958795FA95E1F7C5
:101BE00021E030E0822793278170F80185878FB14B
:101BF00090E0E5E096958795EA95E1F782279327AF
:101C00008170DB011D968C938FB190E064E0969516
:101C100087956A95E1F7822793278170FA01858776
:101C20008FB190E0969587958227932781708D8755
:101C30008FB182278170D7011D968C933E9885E0E5
:101C40008A95F1F780E0DF91CF911F910F91FF907E
:101C5000EF900895E1E6F0E080E8808310825698E6
:101C60005E9824982C9825982698279889EA80933E
:101C7000800089E08093810010D13F9885E0982F03
:101C80009A95F1F75798982F9A95F1F75498982FBD
:101C90009A95F1F75598982F9A95F1F76E98982F95
:101CA0009A95F1F7479A982F9A95F1F75F9A982F9E
:101CB0009A95F1F75C9A982F9A95F1F75D9A982F7B
:101CC0009A95F1F7769A982F9A95F1F78798982F29
:101CD0009A95F1F78698982F9A95F1F78598982F0D
:101CE0009A95F1F78498982F9A95F1F78198982F03
:101CF0009A95F1F78098982F9A95F1F72098982F58
:101D00009A95F1F72198982F9A95F1F72298982FA4
:101D10009A95F1F72398982F9A95F1F75298982F62
:101D20009A95F1F75398982F9A95F1F73E98982F36
:101D30009A95F1F78F9A982F9A95F1F78E9A982F96
:101D40009A95F1F78D9A982F9A95F1F78C9A982F8A
:101D50009A95F1F7899A982F9A95F1F7889A982F82
:101D60009A95F1F72898982F9A95F1F72998982F36
:101D70009A95F1F72A98982F9A95F1F72B98982F22
:101D80009A95F1F75A98982F9A95F1F75B98982FB2
:101D90009A95F1F746988A95F1F780E008950FD16A
:101DA00008D101D1FAD0F3D0ECD0E5D0DED0D7D035
:101DB000D0C0662309F470C0633E61F1643E40F414
:101DC000613EC1F0623EF0F4603E09F04DC00AC0D1
:101DD000653E81F1653E30F1663EA1F1673E09F056
:101DE00043C038C090912402882311F0916039C01B
:101DF0009E7F37C090912402882311F0926031C0F9
:101E00009D7F2FC090912402882311F0946029C0F7
:101E10009B7F27C090912402882311F0986021C0F5
:101E2000977F1FC090912402882311F0906119C000
:101E30009F7E17C090912402882311F0906211C0F8
:101E40009F7D0FC090912402882311F0906409C0F7
:101E50009F7B07C090912402882311F0906801C0F5
:101E60009F77909324020895A5E2B2E0E0E0F0E0CD
:101E70009C91882331F0992351F4EB5DFD4F6083F1
:101E80000895961721F4EB5DFD4F10820895319669
:101E90001196E630F10561F70895E9EBF0E08081F5
:101EA0008C7F808388E48093B800089584EA8093CF
:101EB000BC008091BC0087FFFCCF8091B900887F77
:101EC000883049F08091B900887F803121F080917D
:101ED000B900887F089580E0089584E98093BC006C
:101EE0008091BC0084FDFCCF08958093BB0084E802
:101EF0008093BC008091BC0087FFFCCF8091B9002B
:101F0000887F883171F08091B900887F883249F0EC
:101F10008091B900887F803421F08091B900887F5A
:101F2000089580E00895FC0184EC8093BC008091CA
:101F3000BC0087FFFCCF8091BB0080838091B900FB
:101F4000887F803511F480E008958091B900887F02
:101F5000089580912102E8D910922102089580917C
:101F60002002E2D910922002089580911F02DCD94C
:101F700010921F02089580911E02D6D910921E025F
:101F8000089580911D02D0D910921D02089580916C
:101F90001C02CAD910921C02089580911B02C4D958
:101FA00010921B02089580911A02BED910921A0253
:101FB000089580911902B8D910921902089580915C
:101FC0001802B2D9109218020895CF92DF92EF92C0
:101FD000FF920F931F93CF93DF93082FE091860218
:101FE00084E5E89FF0011124809185022EE0829F14
:101FF000C0011124E80FF91F8091C802E80FF11DFC
:10200000E455FF4FC4908091C502882369F180E0B8
:1020100040D9D82E80E050D9182FC02FD0E087E1CA
:10202000E82E82E0F82EEC0EFD1EF70180817CD9AF
:10203000D01641F4123079F58C2D63E050D9F701B8
:10204000808329C01150123030F4ED2DF0E0E95EAC
:10205000FD4F808169D98C2D61E041D9C95EDD4F8A
:1020600088831092300217C080E013D9182F80E0C7
:1020700023D9101781F4813071F4C12FD0E0C95EEB
:10208000DD4F888151D980913002882321F48C2D35
:1020900062E025D98883DF91CF911F910F91FF9046
:1020A000EF90DF90CF90089583E08FCF81E08DCFC8
:1020B0001F93CF93DF93E091860294E5E99FF001AF
:1020C0001124209185029EE0299F90011124E20FA6
:1020D000F31F9091C802E90FF11DE455FF4F1491D1
:1020E000C82FD0E0FE01E95EFD4F80811DD980E060
:1020F000E3D88150823018F480E0CBD815D9812FF5
:1021000060E0EDD8C95EDD4F8883DF91CF911F91EC
:10211000089586E0CDCF82E0CBCF81E08093C402EA
:102120008091C7028F5F8093C702B3D880938602E5
:102130009091C8022091850230E0220F331FF901EF
:1021400043E0EE0FFF1F4A95E1F7E21BF30BE90FA7
:10215000F11DEF5CFD4F808334C9E091860284E578
:10216000E89FF0011124809185022EE0829FC0013A
:102170001124E80FF91F8091C802E80FF11DE45502
:10218000FF4FE4918091C5026E2F13CE8091C4025F
:10219000882339F48091C502882319F081E0809367
:1021A0003002DBCF8091220290912302181619068B
:1021B0003CF48091C502882319F080E061EEF9DDDE
:1021C0008091C402882339F48091C502882319F0D4
:1021D00081E080933002C1CFF89481E08093E000E9
:1021E00080E28093D800E9ECF0E0108280E29EE487
:1021F0000197F1F71DBA109268001CBC10BE1FBAFF
:1022000010927A0010926E0010926F00109271007E
:10221000109272001082ECEBF0E0108214B817B844
:102220001AB81DB810BA108215B818B81BB81EB865
:1022300011BA0C94003F08958091C50260EEB9DD9B
:102240008091C50262EEB5DD8091C50263EEB1DD1D
:10225000A9CF8091C50262EEACDDA4CF8091C5020A
:1022600063EEA7DD9FCF8091C50260EEA2DD9ACF1D
:102270008091C5022091220230912302882319F017
:102280002F5F3F4F02C021503040309323022093F4
:10229000220280912202909123021816190614F44A
:1022A00081E001C080E061EE84DD70CF81E0809349
:1022B000D70080EA8093D80082E189BD09B400FE8E
:1022C000FDCF80E98093D8001092E00010922C029C
:1022D0008CE08093E2007894089580912C02089518
:1022E00080912C02882309F441C02FB7F89481E033
:1022F0008093E9009091E4009E5C31E08091E800D9
:1023000085FD0EC02FBF80912C02882379F180912A
:10231000E400891759F12FB7F8943093E900EECF14
:10232000809124028093F1001092F10080912502A7
:102330008093F100809126028093F1008091270222
:102340008093F100809128028093F100809129020E
:102350008093F10080912A028093F1008AE38093B8
:10236000E80010922D022FBF80E008958FEF0895AE
:102370001F920F920FB60F9211242F938F939F935A
:102380008091E1001092E100982F83FF0FC010921E
:10239000E90081E08093EB001092EC0082E28093F0
:1023A000ED0088E08093F00010922C0292FF44C070
:1023B00080912C02882309F43FC020911801222328
:1023C000D9F180912E028F5F80932E0290E083706E
:1023D0009070892B89F581E08093E9008091E80075
:1023E00085FF2AC080912D028F5F80932D02821776
:1023F00019F510922D02809124028093F100109221
:10240000F100809125028093F10080912602809353
:10241000F100809127028093F1008091280280933F
:10242000F100809129028093F10080912A0280932B
:10243000F1008AE38093E8009F918F912F910F9094
:102440000FBE0F901F9018951F920F920FB60F920C
:1024500011240F931F932F933F934F935F936F9389
:102460007F938F939F93AF93BF93EF93FF931092BC
:10247000E9008091E80083FF5BC14091F100309159
:10248000F1008091F100682F70E02091F100922F0F
:1024900080E0682B792B8091F100A82FB0E020918B
:1024A000F100922F80E0A82BB92B1091F100009140
:1024B000F10082EF8093E800363009F05AC02BE13A
:1024C00031E1A90145505040F90137978591949128
:1024D0008617970701F5FA01859194918A179B0752
:1024E000D1F49A012E5F3F4FF901659174912E5FEF
:1024F0003F4FF9014491212F30E0902F80E0282BAD
:10250000392B2F3F310519F010F02FEF30E0241751
:1025100058F4422F09C0295F3F4F495F5F4FF1E1F7
:102520002A353F0789F604C15EEF8091E800282F25
:1025300030E0C90185709070892BB9F322FDFBC092
:10254000342F413208F030E2232FCB0106C0FC01CA
:102550000196E491E093F10021502223C1F7630F2B
:10256000711D431B5093E8004423F9F63032E9F221
:10257000E2C0353061F48EEF8093E8008091E8008E
:1025800080FFFCCF862F80688093E300D4C0393071
:1025900031F5442309F071C060932C028EEF8093D3
:1025A000E80083E591E121E02093E900FC01019638
:1025B000E491E093EB00EE2369F0AC014F5F5F4FD5
:1025C000FC0184918093EC00CA010196FA013491D8
:1025D0003093ED002F5F253039F78EE149C0383058
:1025E00051F4403809F049C08091E80080FFFCCFE9
:1025F00080912C027BC03323D1F48091E80080FFCE
:10260000FCCF423811F080E00DC0A093E90080912A
:10261000EB0090E025E0969587952A95E1F781708B
:102620001092E9008093F1001092F1007DC03130EA
:1026300011F0333011F5423001F561157105E9F4FF
:102640002A2F2F77822F81508430B8F48EEF809319
:10265000E8002093E900333009F46AC089E18093EF
:10266000EB0081E090E002C0880F991F2A95E2F705
:102670008093EA001092EA005EC0AB2B09F058C0CC
:10268000413AB9F5313009F58091E80080FFFCCF7F
:10269000809124028093F1001092F1008091250234
:1026A0008093F100809126028093F10080912702AF
:1026B0008093F100809128028093F100809129029B
:1026C0008093F10080912A0211C0323039F4809158
:1026D000E80080FFFCCF8091180108C0333041F53D
:1026E0008091E80080FFFCCF809119018093F10078
:1026F0001BC04132E9F4393061F48091E80082FF77
:10270000FCCF8091F10080932B028BEF8093E80047
:102710000BC03A3029F47093180110922D0204C0B6
:102720003B3031F4609319018EEF8093E80003C0D1
:1027300081E28093EB00FF91EF91BF91AF919F9168
:102740008F917F916F915F914F913F912F911F9149
:102750000F910F900FBE0F901F901895382F8091FA
:102760002C02882339F12FB7F89482E08093E90096
:102770009091E4009E5C42E08091E80085FD0EC0EF
:102780002FBF80912C028823A9F08091E400891743
:1027900089F02FB7F8944093E900EECF3093F10021
:1027A0006093F1007093F1008AE38093E8002FBFFB
:1027B00080E008958FEF08956091C9027091CA0278
:1027C0008091CB029091CC026817790719F420E030
:1027D00030E011C083E0C2DF282F332727FD30957A
:1027E0002115310541F48091C9029091CA0290935C
:0E27F000CC028093CB02822F0895F894FFCF85
:1027FE006F01C30101000000000000000000000096
:0A280E0000000000000000007D0142
:00000001FF
